:100000000C94F4010C9438020C9438020C943802CD
:100010000C9438020C9438020C9438020C94380278
:100020000C9438020C9438020C94A4080C947609B1
:100030000C94F9180C9438020C9438020C94380281
:100040000C9438020C942E1D0C9438020C94380237
:100050000C9438020C9469190C9438020C943802F0
:100060000C9438020C9438020C9438020C94380228
:100070000C9438020C9438020C9438020C94380218
:100080000C9438020C9438020C9438020C94380208
:100090000C9438020C9438020C9438020C943802F8
:1000A0000C9438020C9438020C943802E309050AC7
:1000B000F30A050AF30A4A0A6D0AF30AC20AD50AC4
:1000C000AA0DAA0DD70DD70D2E0EBD10BD10BD1057
:1000D000680EBD10650F650F20103610BD10A910F9
:1000E000AB1BC31B8E1B361C361CE01B361C361C80
:1000F000E21B361CEC1BF61B361C361C361C361C51
:10010000E01BE01B361CE01B361CCE1B361C361CCD
:100110001F1C1F1C1F1C1F1C1F1C1F1C1F1C1F1C07
:100120001F1C1A1C361C1A1C361C361C361C361C8E
:10013000361C361C361C361C361C361C361C1A1C4B
:10014000361C361CE01B951B211C211C211C211C6C
:10015000211C211C211C211C211C211C211C211CB7
:10016000FF1B361CB51B016202620162026200F1D4
:10017000A100D100D200D03A3B291E1F202122230A
:10018000242526272D2E2A4B3C3D2B141A08151703
:100190001C180C12132F30314E3E3F39041607093C
:1001A0000A0B0D0E0F33342800494041E11D1B0698
:1001B0001905111036373800E5524C4243E0C0E2D1
:1001C0000000002C00000000E650514F0101353ABC
:1001D0003B3C3D3E3F4041424344454C010101010F
:1001E0000152010101B201490146474801010101E3
:1001F0000150514FC8C9010101014A4B01000101E1
:1002000001010165C1C2C3AAA9A84D4E00010101A7
:1002100001010101010000000100000000010101D5
:1002200001001080FF01230020100341004D004A0F
:10023000004D0049004E00490000001203480061D3
:10024000006E0020004300680065006E000000049E
:1002500003090409025400030100A032090400004C
:100260000103010100092111010001223F000705DE
:10027000810308000A0904010001030000000921AC
:10028000110100012236000705820308000A090453
:1002900002000103000000092111010001223900C0
:1002A000070583031000011201100100000008ED92
:1002B000FE716001000102000105010906A10105AE
:1002C0000719E029E7150025019508750181020548
:1002D000081901290595057501910295017503918C
:1002E0000105071900297715002501957875018109
:1002F00002C005010980A101850216010026B70090
:100300001A01002AB700751095018100C0050C097B
:1003100001A1018503160100269C021A01002A9CF6
:1003200002751095018100C005010906A1010507AC
:1003300019E029E71500250195087501810295014D
:1003400075088101050819012905950575019102B6
:100350009501750391010507190029FF150025FF77
:10036000950675088100C000000000000000000034
:100370000001010102020203030404050506060749
:100380000808090A0B0B0C0D0E0F1011121315168D
:1003900017191A1B1D1E2022232527292B2D2F312B
:1003A0003335383A3D3F4244474A4D505356595CE5
:1003B0005F6266696C7074777B7E82868A8E9195A7
:1003C000999DA1A5A9ADB0B4B8BCC0C3C7CBCED2CE
:1003D000D5D8DBDFE2E4E7EAECEFF1F3F5F7F8FA82
:1003E000FBFCFDFEFFFFFF0011241FBECFEFDAE094
:1003F000DEBFCDBF04B603FE24C08091FF01909103
:100400000002A0910102B09102028730904BA740F8
:10041000B04BB9F41092FF01109200021092010249
:100420001092020214BE84B7877F84BF88E10FB6A2
:10043000F89480936000109260000FBEE0E0F8E353
:10044000099511E0A0E0B1E0EEE1F4E402C005900E
:100450000D92AE31B107D9F711E0AEE1B1E001C0C4
:100460001D92AF3FB107E1F70E94EA050C940D22FF
:100470000C940000089508958AEA90E0089584E0BD
:1004800090E00895611104C0FC018281811103C0D4
:1004900080E090E0089586E691E00895462F672F6A
:1004A0000C94F820805C0E94EC20089587E791E08E
:1004B00008958FE691E0089585E0089581E108951B
:1004C00080E885BF85BF80B38D7080BB81B38D70A0
:1004D00081BB8098889A3E98469A84B114B885B1B9
:1004E0008FEF85B98AB180718AB98BB18F6E8BB964
:1004F000E2E3F1E0AEE1B1E01192119211921192BA
:100500001D921D921D921D9281E0E634F807A1F71D
:100510000895CF92DF92EF92FF920F931F93CF93A4
:10052000DF93AEE1B1E0FD0140E051E065E0423033
:1005300071F018F4413041F004C0433059F04430B8
:1005400061F0819A89980BC0849A8C9808C0859A2A
:100550008D9805C0869A8E9802C0879A8F9880EAF7
:100560008A95F1F78FB18170852790E01B9903C0C0
:1005700022E030E002C020E030E0822B932B1A9979
:1005800003C004E010E002C000E010E0802B912BDB
:10059000199903C008E010E002C000E010E0802BD1
:1005A000912B189903C020E130E002C020E030E038
:1005B000EC01C22BD32B23B1332727FD3095209597
:1005C0003095C9018827990F881F992715E0880F52
:1005D000991F1A95E1F78C2B9D2B489903C0C0E415
:1005E000D0E002C0C0E0D0E08C2B9D2B499903C025
:1005F000C0E8D0E002C0C0E0D0E08C2B9D2B4A992F
:1006000003C000E011E002C000E010E0802B912B5D
:100610004B9903C020E032E002C020E030E0822BA2
:10062000932B4D9903C0C0E0D4E002C0C0E0D0E0FD
:100630008C2B9D2B4E9903C020E038E002C020E0B7
:1006400030E08C01022B132B29B1332727FD309585
:1006500020953095C9018827990F881F9927982FD1
:1006600088279295907F802B912B1C9903C000E0E6
:1006700010E202C000E010E0082B192B1D9903C006
:1006800020E030E402C020E030E0022B132B2227D0
:1006900017FD2095322F1E9906C0C12C90E8D92E47
:1006A000E12CF12C03C0C12CD12C76010C291D2981
:1006B0002E293F29369905C0C12CD12C7601E3940F
:1006C00003C0C12CD12C76010C291D292E293F29CC
:1006D000C080D180E280F380C016D106E206F30626
:1006E00031F000831183228333836093000180B350
:1006F0008D7080BB81B38D7081BB4F5F3496453068
:1007000009F015CF809100018823D1F081508093AA
:100710000001882339F08FE99FE00197F1F700C0CD
:1007200000000EC0E2E3F1E04D915D916D917D918D
:10073000419351936193719391E0A233B907A1F76B
:1007400081E0DF91CF911F910F91FF90EF90DF90AB
:10075000CF90089524E0829FC0011124FC01EE5C3B
:10076000FE4F608171818281938108950895CF93B6
:10077000C82F873090F48430E0F4813090F10E94EB
:10078000931C0E94F21C0E94281DEC2FF0E0EF5DEC
:10079000FD4F8491CF910C94AE1C8730A9F0883026
:1007A00001F50E94931C0E94EC1C0E94281D81E010
:1007B00012C00E94931C0E94F21C0E94221D86E01F
:1007C0008C1BCF910C942B1D0E94931C0E94EC1C3F
:1007D0000E94281D80E00E940F1D83E0CF910C94A1
:1007E0001A1D0E94F21C0E94281DCF910C949D1C82
:1007F000CF93DF9300D000D01F92CDB7DEB78091AA
:10080000FE0180FF26C0869590E08730910519F0A3
:10081000089781F01EC06623E1F080E40E941D1D50
:1008200080E20F900F900F900F900F90DF91CF917B
:100830000C94DE1C662369F080E40E941D1D80E29A
:100840000F900F900F900F900F90DF91CF910C941D
:10085000C71C0F900F900F900F900F90DF91CF91CA
:100860000895E82FF0E0EE0FFF1FEB5DFD4F85913F
:10087000949108956E9A769A549A5C980895882374
:1008800019F0813019F00895769808955C9A0895CA
:10089000882319F0813019F00895769A08955C98AC
:1008A00008958091560108950895CF93DF9300D065
:1008B0001F92CDB7DEB72091F501243021F523E05A
:1008C00029839B838A8382E08093E9008FEF909154
:1008D000E800815095FD06C095ED9A95F1F700006E
:1008E0008111F5CF8091E80085FF0DC040E050E018
:1008F00063E070E0CE0101960E9494068091E800CA
:100900008E778093E8000F900F900F90DF91CF913A
:100910000895CF93DF9300D01F92CDB7DEB79C012F
:100920008091F501843019F592E099833B832A8305
:100930009093E9008FEF9091E800815095FD06C0FB
:1009400095ED9A95F1F700008111F5CF8091E800BF
:1009500085FF0DC040E050E063E070E0CE010196FD
:100960000E9494068091E8008E778093E8000F90B3
:100970000F900F90DF91CF910895CF93DF93209147
:10098000F501243009F044C0EC0180910C0188236A
:10099000C1F083E08093E9008FEF9091E8008150EF
:1009A00095FD06C095E19A95F1F700008111F5CF0C
:1009B0008091E80085FF2CC040E050E060E170E0ED
:1009C00017C081E08093E9008FEF9091E80081509B
:1009D00095FD06C095ED9A95F1F700008111F5CFD0
:1009E0008091E80085FF14C040E050E068E070E0CE
:1009F000CE010E9494068091E8008E778093E800F3
:100A000080E1FE01A6E4B1E001900D928A95E1F744
:100A1000DF91CF9108958091F401811109C00E9466
:100A200029080E9486088091E20084608093E20099
:100A300008951092F401089508950C943B020C94CB
:100A40004E19089542E061EC81E00E94A30742E064
:100A500061EC82E00E94A30742E161EC83E00C9428
:100A6000A3078091F701833009F455C030F4813039
:100A700071F0823009F495C008958A3009F481C07C
:100A80008B3009F460C0893009F0A3C020C0809188
:100A9000F601813A09F09DC08091E800877F80933C
:100AA000E8008091FA019091FB01892B21F460E12B
:100AB00086E491E003C060E080E090E070E00E9496
:100AC000DF068091E8008B778093E800089580919D
:100AD000F601813209F07DC08091FA019091FB010D
:100AE000009719F0029709F074C08091E800877FA1
:100AF0008093E8008091E80082FD05C08091F501B7
:100B00008111F8CF66C08091F100809356018091E9
:100B1000E8008B775AC08091F601813A09F059C0FC
:100B20008091FA019091FB01892B09F052C08091CC
:100B3000E800877F8093E8008091E80080FFFCCF89
:100B400080910B013DC08091F601813209F041C0D6
:100B50008091FA019091FB01892BD9F58091E800F1
:100B6000877F8093E8000E94D8079091F80181E088
:100B7000911101C080E080930B0180930C010C94D3
:100B8000DA108091F601813221F58091E800877FAB
:100B90008093E8000E94D8078091F9018093570163
:100BA00008958091F601813AA1F48091E800877F51
:100BB0008093E8008091E80080FFFCCF809157018E
:100BC0008093F1008091E8008E778093E8000C9488
:100BD000D807089584B7877F84BF88E10FB6F8945B
:100BE00080936000109260000FBE90E080E80FB626
:100BF000F89480936100909361000FBE0E942908D1
:100C00000E9486088091E20084608093E2007894DC
:100C10008091F5018430E1F70E94580B81E091E06A
:100C20000E940B0B8091F501853069F40E94231915
:100C30008091F3018823B1F30E94E218882391F395
:100C40000E947E06EFCF0E94680BECCF292F33273E
:100C500023303105C9F064F42130310581F02230B0
:100C6000310509F043C084E590E023E532E042C05D
:100C700021323105F1F02232310541F137C082E1F4
:100C800090E027EA32E036C099278130910541F0A3
:100C90008230910541F0892B49F5EFE4F2E005C07F
:100CA000EBE3F2E002C0E9E2F2E0849190E09F0120
:100CB00021C06330D8F4E62FF0E0EE0FFF1FE85EAE
:100CC000FE4F2081318189E090E014C0633070F4E0
:100CD00070E0FB01EE0FFF1FEE5EFE4F20813181C1
:100CE000FB01E15FFE4F808190E004C080E090E076
:100CF00020E030E0FA0131832083089580E189BD4E
:100D000082E189BD09B400FEFDCF8091D8008F7DBE
:100D10008093D8008091E00082608093E000809111
:100D2000E00081FDFCCF0895CF92DF92EF92FF9219
:100D30000F931F93CF93DF93EC018B016A010E9405
:100D4000F707811133C0C114D10439F0F601808155
:100D50009181081B190BC80FD91FE12CF12C01152B
:100D6000110519F18091E80085FD16C08091E80019
:100D70008E778093E800C114D10449F0F601808198
:100D80009181E80EF91EF182E08285E00FC00E9499
:100D9000F707882321F30AC089918093F10001505D
:100DA0001109FFEFEF1AFF0ADACF80E0DF91CF9150
:100DB0001F910F91FF90EF90DF90CF9008952091B9
:100DC000FC013091FD012617370748F061157105C8
:100DD00039F42091E8002E772093E80001C0B90192
:100DE00040E061157105A9F12091F501222309F474
:100DF00043C0253009F442C02091E80023FD40C0E3
:100E00002091E80022FD32C02091E80020FFE9CFC8
:100E10004091F3002091F20030E0342BFC01CF012F
:100E20006115710559F02830310540F481918093A6
:100E3000F100615071092F5F3F4FF1CF41E0283041
:100E4000310509F040E02091E8002E772093E8007A
:100E5000C8CF4111C9CF0AC08091F501882361F044
:100E6000853061F08091E80083FD0AC08091E80040
:100E700082FFF2CF80E0089582E0089583E0089534
:100E800081E008952091FC013091FD01261737077C
:100E900048F06115710539F42091E8002E77209310
:100EA000E80001C0B901FC0120E06115710591F174
:100EB0008091F501882309F440C0853009F43FC0D2
:100EC0008091E80083FD3DC08091E80082FD2FC045
:100ED0008091E80080FFE9CF2091F3008091F2003B
:100EE00090E0922B6115710559F08830910540F41E
:100EF00024912093F1003196615071090196F2CF4F
:100F000021E0089709F020E08091E8008E77809337
:100F1000E800CBCF2111CCCF0AC08091F501882306
:100F200061F0853061F08091E80083FD0AC0809116
:100F3000E80082FFF2CF80E0089582E0089583E028
:100F4000089581E00895982F973058F59093E9001F
:100F5000981739F07091EC002091ED005091F0005D
:100F600003C0242F762F50E021FF19C03091EB00F1
:100F70003E7F3093EB003091ED003D7F3093ED00EC
:100F80003091EB0031603093EB007093EC002093D4
:100F9000ED005093F0002091EE0027FF07C09F5F07
:100FA000D3CF8F708093E90081E0089580E00895A9
:100FB0008091F60187FF11C08091E80082FD05C095
:100FC0008091F5018111F8CF11C08091E8008B77F5
:100FD0000BC08091F501882349F08091E80080FFE3
:100FE000F8CF8091E8008E778093E80008952091F3
:100FF000E4003091E50095E64091EC00842F81708B
:1010000040FF22C08091E80080FD1CC08091F50166
:10101000882391F0853091F08091EB0085FD10C020
:101020004091E4005091E5004217530729F39A01DB
:10103000915011F784E0089582E0089583E00895C7
:1010400081E0089580E008954091E80042FFDECFFE
:1010500008950E9497080E949F08E0EEF0E08081CA
:1010600081608083E8EDF0E080818F77808319BC18
:10107000A7EDB0E08C918E7F8C9380818F7E8083F2
:101080001092F40108950F931F93CF93DF930E9462
:1010900097080E949F08C8EDD0E088818F778883E9
:1010A00088818068888388818F7D888319BC1092AD
:1010B000F5011092F1011092F3011092F20100EE8D
:1010C00010E0F80180818B7F808388818160888334
:1010D00042E060E080E00E94A307E1EEF0E0808162
:1010E0008E7F8083E2EEF0E080818160808380816A
:1010F00088608083F80180818E7F80838881806111
:101100008883DF91CF911F910F910895E8EDF0E072
:1011100080818F7E8083E7EDF0E080818160808335
:1011200084E082BF81E08093F4010C944308E8EDF1
:10113000F0E080818E7F80831092E200089510920B
:10114000DA001092E10008951F920F920FB60F92ED
:1011500011242F933F934F935F936F937F938F93BC
:101160009F93AF93BF93EF93FF938091E10082FF32
:101170000BC08091E20082FF07C08091E1008B7F6D
:101180008093E1000E9421058091DA0080FF1FC05A
:101190008091D80080FF1BC08091DA008E7F809301
:1011A000DA008091D90080FF0DC080E189BD82E125
:1011B00089BD09B400FEFDCF81E08093F5010E9456
:1011C0000B0505C019BC1092F5010E94190580910C
:1011D000E10080FF19C08091E20080FF15C080917E
:1011E000E2008E7F8093E2008091E2008061809334
:1011F000E2008091D80080628093D80019BC85E01D
:101200008093F5010E941D058091E10084FF30C0AC
:101210008091E20084FF2CC080E189BD82E189BD1C
:1012200009B400FEFDCF8091D8008F7D8093D80057
:101230008091E1008F7E8093E1008091E2008F7EBB
:101240008093E2008091E20081608093E2008091CF
:10125000F101882311F084E007C08091E30087FD4D
:1012600002C081E001C083E08093F5010E941F0568
:101270008091E10083FF29C08091E20083FF25C0B7
:101280008091E100877F8093E10082E08093F50107
:101290001092F1018091E1008E7F8093E1008091B6
:1012A000E2008E7F8093E2008091E2008061809373
:1012B000E20042E060E080E00E94A3078091F0003D
:1012C00088608093F0000E941C05FF91EF91BF9110
:1012D000AF919F918F917F916F915F914F913F91CE
:1012E0002F910F900FBE0F901F9018951F920F9285
:1012F0000FB60F9211242F933F934F935F936F93E9
:101300007F938F939F93AF93BF93CF93DF93EF938D
:10131000FF93C091E900CF708091EC00D82FD1707D
:1013200080FDD0E81092E9008091F000877F8093E3
:10133000F00078940E94BA091092E9008091F000C0
:1013400088608093F000CD2BCF70C093E900FF91AF
:10135000EF91DF91CF91BF91AF919F918F917F914D
:101360006F915F914F913F912F910F900FBE0F9012
:101370001F9018951F93CF93DF93CDB7DEB7AA9731
:101380000FB6F894DEBF0FBECDBFE6EFF1E088E008
:101390008E0F9091F10091938E13FBCF0E94310537
:1013A0008091E80083FF1FC18091F6019091F701C1
:1013B000492F50E04A30510508F015C1FA01EA5AA8
:1013C000FF4F0C94C221803881F0823809F00BC1A4
:1013D0008091FA018F708093E9008091EB0085FB8A
:1013E000882780F91092E90006C08091F20190915F
:1013F000F301911182609091E800977F9093E8004B
:101400008093F1001092F100C8C0282F2D7F09F0C1
:10141000EAC0882319F0823061F0E5C08091F801BC
:10142000813009F0E0C0933009F080E08093F3014F
:101430002BC08091F801811127C08091FA018F7033
:1014400009F4D1C08093E9002091EB0020FF1CC07B
:10145000933021F48091EB00806214C09091EB00F6
:1014600090619093EB0021E030E0A90102C0440FAD
:10147000551F8A95E2F74093EA001092EA008091A6
:10148000EB0088608093EB001092E9008091E80007
:10149000877F86C08111A7C01091F8011F778091C6
:1014A000E3008078812B8093E3008091E800877FC0
:1014B0008093E8000E94D8078091E80080FFFCCF6D
:1014C0008091E30080688093E300111102C082E004
:1014D00001C083E08093F50186C08058823008F017
:1014E00082C08091F8019091F9018C3D53E09507FD
:1014F00079F583E08A838AE289834FB7F894DE0125
:10150000139620E03EE051E2E32FF0E050935700C5
:10151000E49120FF03C0E295EF703F5FEF708E2FE4
:1015200090E0EA3010F0C79601C0C0968D939D936D
:101530002F5F243149F74FBF8091E800877F809368
:10154000E8006AE270E0CE0101960E94DF0614C056
:10155000AE014F5F5F4F6091FA010E942606BC0109
:10156000892B09F440C09091E800977F9093E800A0
:1015700089819A810E9442078091E8008B7780934D
:10158000E80031C0803879F58091E800877F80934A
:10159000E8008091F1018093F1008091E8008E775E
:1015A0008093E8000E94D8071EC081111CC0909152
:1015B000F8019230C0F48091E800877F8093E800C2
:1015C0009093F1010E94D8078091F101811106C02A
:1015D0008091E30087FD02C081E001C084E0809338
:1015E000F5010E9422058091E80083FF0AC08091E6
:1015F000E800877F8093E8008091EB008062809311
:10160000EB00AA960FB6F894DEBF0FBECDBFDF91F8
:10161000CF911F91089590935D0180935C0108958F
:1016200080915C0190915D010895E0915C01F091E1
:101630005D01309721F00190F081E02D099480E068
:101640000895E0915C01F0915D01309721F00280F6
:10165000F381E02D0994089520915A0130915B01A6
:101660008217930771F090935B0180935A01E09188
:101670005C01F0915D01309721F00680F781E02D4B
:1016800009940895209158013091590182179307C8
:1016900071F09093590180935801E0915C01F091B1
:1016A0005D01309721F00084F185E02D09940895C3
:1016B0000E9454190E9460020E94F8190E9464203E
:1016C0000E94251F0E94801C0E943A1E0C94A72194
:1016D0004F925F926F927F929F92AF92BF92CF9202
:1016E000DF92EF92FF920F931F93CF93DF93CDB7CB
:1016F000DEB72E970FB6F894DEBF0FBECDBF0E94A7
:1017000089024FE5A42E41E0B42E00E010E0902EB7
:10171000802F0E94AA03F501C190D190E190F19031
:101720005F01C626D726E826F926C114D104E104B4
:10173000F104B1F40F5F1F4F0530110541F78FEF32
:1017400089838A831B820E945D198160782F9D8323
:101750008C8349815A816B818D810E9423115DC0E8
:101760002091C90121FF0AC06B877C878D879E87E6
:101770000E94B6039E858D857C856B8540E050E098
:1017800026013701042E04C0769467945794479439
:101790000A94D2F740FE3AC04E839F82C12CD12CCE
:1017A0007601C39404C0CC0CDD1CEE1CFF1C4A95D2
:1017B000D2F726013701462257226822792281E09A
:1017C00045284628472809F480E088870E945D194B
:1017D0008160782F9A8789874E815F8168858A85A5
:1017E0000E942311000F111F000F111FF801E15A71
:1017F000FE4F80819181A281B381C826D926EA2635
:10180000FB26C082D182E282F38207C04F5F5F4F26
:101810004131510509F0B4CF8DCF10915E010E9486
:10182000150B1817D9F00E94150B80935E012E96A8
:101830000FB6F894DEBF0FBECDBFDF91CF911F91E1
:101840000F91FF90EF90DF90CF90BF90AF909F905F
:101850007F906F905F904F900C94871F2E960FB6DD
:10186000F894DEBF0FBECDBFDF91CF911F910F91D6
:10187000FF90EF90DF90CF90BF90AF909F907F90C0
:101880006F905F904F900895CF93882309F4C2C062
:10189000C82F823859F40E94150B81FDBBC089E323
:1018A0000E9412160E949A1789E30CC0833879F4BB
:1018B0000E94150B80FDAEC083E50E9412160E94A7
:1018C0009A1783E50E94D716CF910C949A17843803
:1018D00059F40E94150B82FD9DC087E40E941216E8
:1018E0000E949A1787E4EECF8CEF8C0F813A48F470
:1018F0008C2F0E943E1C81118DC08C2F0E941216CD
:10190000E3CF80E28C0F883048F4C77081E001C0DB
:10191000880FCA95EAF70E946C17D6CF8BE58C0F1B
:10192000833078F4C53A29F0C63A31F083E890E084
:1019300005C081E890E002C082E890E0CF910C946D
:101940002C0B88E58C0F833108F064C0C83A39F15C
:10195000C93A41F1CA3A49F1CB3A51F1CC3A59F17D
:10196000CD3A61F1C03B69F1CE3A71F1CF3A79F1EC
:10197000C13B81F1C23B89F1C33B91F1C43B99F179
:10198000C53BA1F1C63BA9F1C73BB1F1C83BB9F1D9
:10199000C93BC1F1CA3BC9F180E090E038C082EE9A
:1019A00090E035C089EE90E032C08AEE90E02FC022
:1019B00085EB90E02CC086EB90E029C087EB90E0AF
:1019C00026C08CEC90E023C08DEC90E020C083E832
:1019D00091E01DC08AE891E01AC082E991E017C049
:1019E00084E991E014C081E292E011C083E292E0C8
:1019F0000EC084E292E00BC085E292E008C086E26D
:101A000092E005C087E292E002C08AE292E0CF91C4
:101A10000C94420BCF910895882309F44BC082386F
:101A200059F40E94150B81FF45C089E30E941216EC
:101A30000E949A1789E30CC0833871F40E94150B39
:101A400080FF38C083E50E9412160E949A1783E532
:101A50000E94D7160C949A17843859F40E94150BDB
:101A600082FF28C087E40E9412160E949A1787E41A
:101A7000EFCF9CEF980F913A58F390E2980F98307F
:101A800050F4877091E001C0990F8A95EAF7892F89
:101A90000E947217DFCF9BE5980F933020F480E00F
:101AA00090E00C942C0B885A833120F480E090E075
:101AB0000C94420B0895882321F00E946C170C941B
:101AC0009A170895882321F00E9472170C949A1790
:101AD0000895CF92DF92EF92FF920F931F93CF93CF
:101AE000DF93CDB7DEB727970FB6F894DEBF0FBEF2
:101AF000CDBF25E0FC01DE01119601900D922A95E3
:101B0000E1F7FC01408131810281258122952F700E
:101B100063817481672B09F430C33F3F19F44F3F51
:101B200009F42BC37C0149833A8389819A812F83ED
:101B30000E94D115182F9E830E94D0150E94E01498
:101B40009E81E92FE295EF70F0E0E05AFF4F2F8180
:101B50000C94C221892F807F9F70F92E882319F061
:101B6000F29480EFF822002349F0FF2009F443C2E9
:101B70008F2D0E947C170E949A173DC2812F0E94D0
:101B80000C0DFF2009F4F9C28F2D0E9482172796B1
:101B90000FB6F894DEBF0FBECDBFDF91CF911F917E
:101BA0000F91FF90EF90DF90CF900C949A17892FB0
:101BB000807F9F70803211F4892F03C0892F829516
:101BC000807F112319F0113009F12AC00023A1F000
:101BD000222381F1213071F527960FB6F894DEBFEC
:101BE0000FBECDBFDF91CF911F910F91FF90EF906E
:101BF000DF90CF900C948C17222319F0213009F438
:101C0000BCC28E830E948F178E8179C1002321F080
:101C1000263008F0B2C20EC0253008F0AEC26FC147
:101C20000023C1F0222331F0F701958190FFE3C139
:101C30009F70958327960FB6F894DEBF0FBECDBF79
:101C4000DF91CF911F910F91FF90EF90DF90CF9098
:101C50000C945B0D222309F452C1E1C1292F269572
:101C60002695237030E02115310521F02130310512
:101C7000C1F083C2002319F0812F937002C080E06D
:101C800090E027960FB6F894DEBF0FBECDBFDF9170
:101C9000CF911F910F91FF90EF90DF90CF900C9418
:101CA0002C0B002319F0812F937002C080E090E08C
:101CB00027960FB6F894DEBF0FBECDBFDF91CF9150
:101CC0001F910F91FF90EF90DF90CF900C94420BFB
:101CD000892F837009F079C001114FC2812F82953D
:101CE00086958770880F880F212F2F70C22ED12CD8
:101CF000E12CF12C082E04C0CC0CDD1CEE1CFF1CCA
:101D00000A94D2F714FF12C04FE050E060E070E098
:101D100004C0440F551F661F771F8A95D2F78A01AA
:101D20009B01009510952095309503C000E010E0D0
:101D30009801969596959370492F50E0C901B80186
:101D400042305105D1F04330510559F16C297D29BC
:101D50008E299F294130510541F127960FB6F894FD
:101D6000DEBF0FBECDBFDF91CF911F910F91FF90CE
:101D7000EF90DF90CF900C94F5146C297D298E297B
:101D80009F2927960FB6F894DEBF0FBECDBFDF9117
:101D9000CF911F910F91FF90EF90DF90CF900C9417
:101DA00007150E94F514C701B60127960FB6F894DF
:101DB000DEBF0FBECDBFDF91CF911F910F91FF907E
:101DC000EF90DF90CF900C94E314002319F0892F4B
:101DD000817001C08695882309F4CFC1812F829537
:101DE00086958770880F880F212F2F70C22ED12CD7
:101DF000E12CF12C082E04C0CC0CDD1CEE1CFF1CC9
:101E00000A94D2F714FF12C04FE050E060E070E097
:101E100004C0440F551F661F771F8A95D2F78A01A9
:101E20009B01009510952095309503C000E010E0CF
:101E30009801969596959370492F50E0C901B80185
:101E400042305105D1F04330510559F16C297D29BB
:101E50008E299F294130510541F127960FB6F894FC
:101E6000DEBF0FBECDBFDF91CF911F910F91FF90CD
:101E7000EF90DF90CF900C94AC156C297D298E29C2
:101E80009F2927960FB6F894DEBF0FBECDBFDF9116
:101E9000CF911F910F91FF90EF90DF90CF900C9416
:101EA000BE150E94AC15C701B60127960FB6F8946F
:101EB000DEBF0FBECDBFDF91CF911F910F91FF907D
:101EC000EF90DF90CF900C949A15103F41F118F4E9
:101ED000103E48F48BC0123F09F450C0D8F1133FB4
:101EE00009F460C083C01F70892F8F71002321F017
:101EF0000E943315812F9ECE0E945415812F279664
:101F00000FB6F894DEBF0FBECDBFDF91CF911F910A
:101F10000F91FF90EF90DF90CF900C94620D002313
:101F2000A9F0253008F029C1892F8F7127960FB6A7
:101F3000F894DEBF0FBECDBFDF91CF911F910F91FF
:101F4000FF90EF90DF90CF900C947915263008F039
:101F500014C1EACF0023A1F0892F8F7127960FB605
:101F6000F894DEBF0FBECDBFDF91CF911F910F91CF
:101F7000FF90EF90DF90CF900C943315002361F326
:101F8000892F8F7127960FB6F894DEBF0FBECDBF95
:101F9000DF91CF911F910F91FF90EF90DF90CF9045
:101FA0000C945415002391F0892F8F7127960FB64A
:101FB000F894DEBF0FBECDBFDF91CF911F910F917F
:101FC000FF90EF90DF90CF900C941E1527960FB6E0
:101FD000F894DEBF0FBECDBFDF91CF911F910F915F
:101FE000FF90EF90DF90CF900C9419150023A1F093
:101FF000222309F4B1CF812F27960FB6F894DEBFC4
:102000000FBECDBFDF91CF911F910F91FF90EF9049
:10201000DF90CF900C94440C222309F4B1CF812F90
:1020200027960FB6F894DEBF0FBECDBFDF91CF91DC
:102030001F910F91FF90EF90DF90CF900C940C0DBB
:10204000492F4F70612FC7010E94420227960FB699
:10205000F894DEBF0FBECDBFDF91CF911F910F91DE
:10206000FF90EF90DF90CF900C944D14011185C03C
:10207000112341F0892F8F70843021F0907F212F20
:102080002F70922B9F70492F50E04230510509F478
:1020900040C0BCF44115510561F14130510509F0D2
:1020A0006CC027960FB6F894DEBF0FBECDBFDF9190
:1020B000CF911F910F91FF90EF90DF90CF900C94F4
:1020C000641E43305105A9F14430510509F055C053
:1020D000812F27960FB6F894DEBF0FBECDBFDF91DC
:1020E000CF911F910F91FF90EF90DF90CF900C94C4
:1020F000BF1E27960FB6F894DEBF0FBECDBFDF918F
:10210000CF911F910F91FF90EF90DF90CF900C94A3
:102110004B1E27960FB6F894DEBF0FBECDBFDF91E2
:10212000CF911F910F91FF90EF90DF90CF900C9483
:102130007D1E27960FB6F894DEBF0FBECDBFDF9190
:10214000CF911F910F91FF90EF90DF90CF900C9463
:102150009C1E492F4F70612FC70127960FB6F89428
:10216000DEBF0FBECDBFDF91CF911F910F91FF90CA
:10217000EF90DF90CF900C94E11827960FB6F8946B
:10218000DEBF0FBECDBFDF91CF911F910F91FF90AA
:10219000EF90DF90CF9008950E9489170E945E17FC
:1021A0000E949A1780E090E00E942C0B80E090E063
:1021B0000C94420B0E9479170C94CC100E94D115FC
:1021C000292F22952F7030E02C3031054CF42A3025
:1021D00031056CF4225031092230310588F407C0F2
:1021E0002C30310549F02F30310531F009C0803EE7
:1021F00048F0803F29F406C093FB882780F90895B2
:1022000080E0089581E00895CF93DF9300D000D05F
:102210001F92CDB7DEB70F900F900F900F900F90D9
:10222000DF91CF910895CF93DF9300D000D000D0FD
:10223000CDB7DEB726960FB6F894DEBF0FBECDBF82
:10224000DF91CF910895CF93DF93CDB7DEB72B9772
:102250000FB6F894DEBF0FBECDBF4F835887698796
:102260007A878B87DE01119686E0FD0111928A95AF
:10227000E9F785E0FE01379601900D928A95E1F726
:102280004F81588569857A858B850E94F80349813D
:102290005A816B817C818D819E810E94A9132B962E
:1022A0000FB6F894DEBF0FBECDBFDF91CF9108957A
:1022B0001F93CF93DF93C091730116E08091740157
:1022C000C81799F0D0E01C9FF0011D9FF00D11245C
:1022D000EB58FE4F408151816281738184819581E9
:1022E0000E9413112196C770E9CFDF91CF911F9102
:1022F00008954091A5015091A6016091A7017091A8
:10230000A8018091A9019091AA010C9413118091C8
:10231000AA0182958F7009F054C08091A70188238B
:1023200009F44FC080917301A09174016091A501DF
:102330007091A6014091A8015091A901B6E08A17B9
:1023400009F43FC090E041155105C1F17F3F11F400
:102350006F3FA1F1B89FF001B99FF00D1124EB5828
:10236000FE4F218172132AC02081621327C022816F
:10237000211124C0238134812417350710F4215002
:102380003109241B350B283C3105C0F42091AA01EA
:102390002F7020612093AA0126E0289FF001299F39
:1023A000F00D1124E658FE4F80818F70806180838C
:1023B00085EA91E00E94690D0C945811019687708E
:1023C000BECF0895CF92DF92EF92FF920F931F93AB
:1023D000CF93DF93CDB7DEB762970FB6F894DEBF29
:1023E0000FBECDBF8C0185E0F801DE011D96019086
:1023F0000D928A95E1F7D8014C9111965C91119755
:1024000012966C9112971396CD90DC9014973091A0
:10241000A5017091A6018091A8019091A901009752
:1024200009F46BC17F3F19F43F3F09F466C1E090A6
:10243000A701EE2009F4C0C02091AA01C816D90650
:1024400028F0F601E81BF90BCF0104C080959095A8
:102450008C0D9D1DFF24F394883C910578F0F12CA0
:10246000207F09F0C6C07C2DD98AC88A89890E943C
:10247000041185EA91E00E94690DB1C0822F807F2E
:1024800009F046C0751314C0341312C0611110C096
:102490002F7020612093AA010E94791185EA91E0B2
:1024A0000E94690D8091AA01D80115968C932EC0C7
:1024B000CD2819F15F3F11F44F3FF9F0F62E61116D
:1024C0001CC0809173012091740136E0821709F4D9
:1024D0005AC090E0389FF001399FF00D1124EB585D
:1024E000FE4F7181571306C07081471303C072817C
:1024F000711103C001968770E9CFF62E662309F4A7
:1025000018C18091AA0181608093AA01F12C11C1A8
:10251000751308C0341306C0611104C08091AA016C
:10252000D801C3C04D875E878D859E856A8B0E94CA
:10253000DE106A898823E1F16623D1F12091AA0196
:10254000822F82958F7090E0029774F08091A501A0
:102550009091A60198878F831986DB86CA862C877F
:10256000CE0107960E94690D86E0F801A5EAB1E068
:1025700001900D928A95E1F70E9487110E947911CE
:10258000FF24F394D6C04D875E878D859E850E947B
:10259000D115292F22952F7030E0223031050CF013
:1025A000BCC09F7009F0B6C0805E883008F4C1C01E
:1025B000C8010E94690DE4CFC816D90608F453C0BB
:1025C000F601E81BF90BCF01883C910508F450C0D7
:1025D000F12C7C2DD98AC88A89890E940411E5EAE8
:1025E000F1E086E0DF011D928A95E9F70E947911FA
:1025F000A0C0751314C0341312C0611110C08091B3
:10260000AA01F8018583C8010E94690D86E0E5EA08
:10261000F1E0DF011D928A95E9F7FE2C8AC04D8713
:102620005E878D859E856A8B0E94DE106A8988236D
:1026300009F4BECF662309F4BBCF2091AA01822FF3
:1026400082958F7090E002970CF48ECF8091A50157
:102650009091A6019A8389831B82DD82CC822E838E
:10266000CE0101967FCF809590958C0D9D1DACCFAE
:10267000F62E662309F49CCF75132EC034132CC09C
:102680002091AA0120FD1FC0822F82958F70D9F062
:10269000D80115962C9315978F3049F08F5F982F9E
:1026A0009295907F822F8F70892B15968C93C801FD
:1026B0000E94690D86E0F801A5EAB1E001900D9253
:1026C0008A95E1F793CF86E0F801A5EAB1E00190A1
:1026D0000D928A95E1F72DC04D875E878D859E8589
:1026E0000E94DE10811140CF8091AA018160809309
:1026F000AA01C8010E94690D1CC0662309F458CFC5
:102700004D875E878D859E850E94DE10882309F4A3
:102710004FCF2ACF811148CF0CC0243031050CF0A7
:1027200047CF9F7009F440CFF8019581907F09F061
:102730003BCF8F2D62960FB6F894DEBF0FBECDBF94
:10274000DF91CF911F910F91FF90EF90DF90CF908D
:1027500008951F93CF93DF93CDB7DEB72C970FB6B5
:10276000F894DEBF0FBECDBF4F83588769877A8745
:102770008B879C87CE0107960E94E211882369F01F
:102780008F8198852A853B85232BF1F19F3F09F0A6
:1027900063C08F3F09F060C037C086E0FE01379606
:1027A000DE01119601900D928A95E1F76F8178858F
:1027B000EA85FB85309741F17F3F11F46F3F21F1AE
:1027C0002091740130E0C9010196877099274091EA
:1027D000730150E08417950709F447C069837A8331
:1027E000FD83EC8396E0929FD001939FB00D11245E
:1027F000AB58BE4FFE01319601900D929A95E1F7CC
:10280000809374010E94581116E080917301909199
:1028100074018917C1F1189FC00111248B589E4F74
:102820000E94E211882379F1E09173011E9FF0016B
:102830001124EB58FE4F4081518162817381848164
:1028400095810E9413118091730190E00196877029
:10285000992780937301D9CF4F81588569857A85EF
:102860008B859C850E941311CFCF0E94DA101092A5
:10287000740110927301E5EAF1E086E0DF011D9238
:102880008A95E9F7C1CF2C960FB6F894DEBF0FBE3C
:10289000CDBFDF91CF911F910895EF92FF920F93DB
:1028A0001F93CF93DF938C01892B09F46AC0F12C1D
:1028B000EE24E394E8012196F8018491843740F4F2
:1028C000843008F04FC0813081F0823019F159C056
:1028D000853709F442C098F19CE7980F903708F0CB
:1028E00050C08F770E940C0D3FC00E5F1F4FFE013E
:1028F000C49180E28C0F883048F4C7708E2D01C0DF
:10290000880FCA95EAF70E947C172FC08C2F0E946F
:10291000440C2BC00E5F1F4FFE01C49180E28C0F50
:10292000883048F4C7708E2D01C0880FCA95EAF729
:102930000E9482171AC08C2F0E940C0D16C00E5FC9
:102940001F4FFE01C491CC2381F08FE99FE00197D6
:10295000F1F700C00000C150F6CF0E5F1F4FFE011F
:10296000F49003C00E94440C8E018F2D882309F43B
:10297000A1CFEFE9FFE03197F1F700C000008150EF
:10298000F5CFDF91CF911F910F91FF90EF900895B8
:102990006093AF017093B0018093B1019093B20145
:1029A0000E94BD1F0C94CC106093AB017093AC01DE
:1029B0008093AD019093AE010E94FF1F0C94CC1048
:1029C00008950C94C8140F931F930091AF011091B8
:1029D000B0012091B1013091B201602B712B822B9B
:1029E000932B1F910F910C94C8140F931F93009178
:1029F000AF011091B0012091B1013091B20160237B
:102A00007123822393231F910F910C94C8140F9369
:102A10001F930091AF011091B0012091B10130914D
:102A2000B20160277127822793271F910F910C9481
:102A3000C81460E070E0CB010C94D4140F931F9382
:102A400041E050E060E070E08A019B0104C0000FAB
:102A5000111F221F331F8A95D2F7C901B8011F9198
:102A60000F910C94D4140F931F9341E050E060E059
:102A700070E004C0440F551F661F771F8A95D2F778
:102A80008091AB019091AC01A091AD01B091AE01EC
:102A90008A019B01082B192B2A2B3B2BC901B8015A
:102AA0001F910F910C94D4140F931F9341E050E0A9
:102AB00060E070E004C0440F551F661F771F8A95C1
:102AC000D2F740955095609570958091AB019091AB
:102AD000AC01A091AD01B091AE018A019B01082328
:102AE00019232A233B23C901B8011F910F910C948C
:102AF000D4140F931F9341E050E060E070E004C0F5
:102B0000440F551F661F771F8A95D2F78091AB013E
:102B10009091AC01A091AD01B091AE018A019B01F1
:102B2000082719272A273B27C901B8011F910F91B0
:102B30000C94D4140F931F930091AB011091AC012E
:102B40002091AD013091AE01602B712B822B932B24
:102B50001F910F910C94D4140F931F930091AB010C
:102B60001091AC012091AD013091AE016023712331
:102B7000822393231F910F910C94D4140F931F93CE
:102B80000091AB011091AC012091AD013091AE01EB
:102B900060277127822793271F910F910C94D414DB
:102BA0000895CF92DF92EF92FF920F931F93CF93EE
:102BB000DF938C01C090AF01D090B001E090B101E3
:102BC000F090B2014091AB015091AC016091AD0128
:102BD0007091AE01C42AD52AE62AF72ACFE1D0E0C7
:102BE000D701C6010C2E04C0B695A7959795879579
:102BF0000A94D2F780FF07C0B8018C2F0E946E188C
:102C00008130910531F4219758F7B80180E00E9496
:102C10006E18DF91CF911F910F91FF90EF90DF9091
:102C2000CF900895CF92DF92EF92FF920F931F9370
:102C3000CF93DF93C82F80910C018823C1F08C2F94
:102C40008695869586958F3008F0A8C0E0910D0195
:102C5000F0910E01E80FF11DC77081E090E001C016
:102C6000880FCA95EAF79181892B818397C0D0900C
:102C7000C6013091C401E0910D01F0910E013323A2
:102C800009F477C04091C5018D2D2FEF96E0E92E14
:102C9000F12C082F112707FD1095BF01600F711F40
:102CA000DB0112969C919C1709F478C02F3F19F410
:102CB000911101C0282FC801019606E010E0B7016C
:102CC0000E94AE218413E5CFD22F4D1152C02F3F69
:102CD00071F4842F992787FD90950196B8010E9481
:102CE000AE218093C60131503093C40142C0822F7F
:102CF000992787FD90950196B8010E94AE21282F53
:102D0000FF24F39406E010E0332727FD30956F0190
:102D1000C20ED31ED60112965C91552399F08D2FC9
:102D2000992787FD9095BF01680F791FDB011296E7
:102D30005C93D60112961C920196B8010E94AE21B6
:102D4000D82F01C0F394C9010196B8010E94AE21A9
:102D5000282F8413D9CF242F332727FD30952F19FF
:102D60003109C901069666E070E00E94AE218093A9
:102D7000C5012091C501332727FD3095E20FF31FD0
:102D8000C283C901019666E070E00E94AE21809383
:102D9000C5018091C4018F5F8093C401DF91CF9101
:102DA0001F910F91FF90EF90DF90CF900895EF92D9
:102DB000FF920F931F93CF93C82F80910C0188230C
:102DC000C9F08C2F8695869586958F3008F070C057
:102DD000E0910D01F0910E01E80FF11DC77081E047
:102DE00090E001C0880FCA95EAF780959181892308
:102DF00081835EC02091C6014091C401442309F43F
:102E000057C0E0910D01F0910E010091C50111270D
:102E100007FD109586E0E82EF12C30E0DF01A20FCF
:102E2000B31FCD01029612965C915C1337C0DC0192
:102E30001C9241504093C401411104C01092C6013C
:102E40001092C5014091C501842F992787FD909567
:102E5000059666E070E00E94AE212817390741F51B
:102E6000C091C60106E010E0842F992787FD909558
:102E70000596B8010E94AE219C01482F0596B80125
:102E80000E94AE21DF01A80FB91F12968C9181110B
:102E900002C02C13E9CF2093C5010AC0C9010196D5
:102EA000B7010E94AE21282F8017910709F0B5CFF6
:102EB000CF911F910F91FF90EF90089581E090E0E6
:102EC000E0910D01F0910E01E80FF91F10820196BB
:102ED00080319105A9F708959091C801892B8093BD
:102EE000C801089580959091C80189238093C801F5
:102EF00008951092C80108959091C701892B80937D
:102F0000C701089580959091C70189238093C701D7
:102F100008951092C70108958093B3010895109207
:102F2000B301089580910C01811103C08091C40107
:102F300008950895E0910D01F0910E018091C8016E
:102F40008083E0910D01F0910E0190818091C70185
:102F5000892B80838091B301882361F0E0910D017A
:102F6000F0910E019081892B80830E94921781112C
:102F70001092B30180910D0190910E010C94210BE0
:102F80008D3B50F4883AE8F4853A90F4843070F43C
:102F9000813009F45BC007C0803E28F0883E30F0E5
:102FA000803F08F050C080E090E0089590E00895E0
:102FB000853A09F44EC0863A09F44EC083E890E49D
:102FC0000895883A09F44BC0893A09F44BC08A3A0B
:102FD00009F44BC08B3A09F44BC08C3A09F44BC04E
:102FE0008B3B09F44BC08C3B09F44BC08D3A09F480
:102FF0004BC0803B09F44BC08E3A09F44BC08F3A6A
:1030000009F44BC0813B09F44BC0823B09F44BC02F
:10301000833B09F44BC0843B09F44BC0853B09F466
:103020004BC0863B09F44BC0873B09F44BC0883B3F
:1030300009F44BC0893B09F44BC08A3B09F44BC0EF
:1030400080E094E4089590E09065089581E090E038
:10305000089581E890E4089582E890E4089582EE6E
:1030600094E4089589EE94E408958AEE94E4089532
:1030700085EB94E4089586EB94E4089583EB94E45F
:10308000089584EB94E4089587EB94E408958CEC20
:1030900094E408958DEC94E4089583E895E408950C
:1030A0008AE895E4089582E995E4089584E995E431
:1030B000089581E296E4089583E296E4089584E217
:1030C00096E4089585E296E4089586E296E40895EC
:1030D00087E296E408958AE296E408950E944E02FB
:1030E000803EA8F4803C00F5813309F45CC038F4DC
:1030F000893209F452C08A3209F45BC05FC0893357
:10310000B1F08238A1F0853309F441C057C0833E45
:1031100041F128F4803E99F0823EB9F04FC0863EDE
:1031200031F1873E71F14AC00E9452020895909198
:10313000F00190FD02C091FF41C080EE3FC0809140
:10314000F00180FFFACF89E339C08091F00182FF5E
:103150000CC08091F00184FF02C080E02FC083EE9C
:103160002DC08091F00182FFF4CF82EE27C08091C4
:10317000F00183FF0AC08091F00184FDEECF87EE5D
:103180001DC08091F00183FFF6CF86EE17C08091BD
:10319000F00185FF06C089E211C08091F00185FF32
:1031A000FACF85E30BC08091F00186FF06C08AE26A
:1031B00005C08091F00186FFFACF81E30E94C0171D
:1031C00008950895CF930E943A020E9489020E94B6
:1031D0003B02C0E08C2F0E94AA03672B682B692B4F
:1031E00029F4CF5FC530B1F780E001C081E0CF9115
:1031F00008951F920F920FB60F9211248F939F93F1
:10320000AF93BF938091CA01811113C08091CB010C
:103210009091CC01A091CD01B091CE014196A11D1C
:10322000B11D8093CB019093CC01A093CD01B093BD
:10323000CE01BF91AF919F918F910F900FBE0F90D4
:103240001F90189508958091F501843029F110920E
:10325000CA0120E488E190E00FB6F894A895809325
:1032600060000FBE209360000E9422190E949D1CE6
:1032700083B7817F846083BF83B7816083BF789485
:10328000889583B78E7F83BF88E10FB6F8948093CB
:103290006000109260000FBE089508950E94DA1039
:1032A0000E944D190C943A1E82E084BD93E095BDB6
:1032B0009AEF97BD80936E0008952FB7F894809190
:1032C000CB019091CC01A091CD01B091CE012FBF47
:1032D00008951F920F920FB60F9211248F939F9310
:1032E000AF93BF938091CB019091CC01A091CD0180
:1032F000B091CE010196A11DB11D8093CB01909399
:10330000CC01A093CD01B093CE01BF91AF919F911D
:103310008F910F900FBE0F901F9018950E94290853
:10332000F8942FEF87EA91E6215080409040E1F732
:1033300000C0000087E090EBDC018093FF019093D8
:103340000002A0930102B09302022CE088E190E019
:103350000FB6F894A895809360000FBE209360008C
:10336000FFCFCF92DF92EF92FF920F931F93CF93F5
:10337000DF93D82FC0E08C2F0E94AA036B017C0141
:1033800000E010E0D701C601002E04C0B695A79555
:10339000979587950A94D2F780FD06C00F5F1F4F5F
:1033A0000131110579F709C0602F7C2F80E00E9460
:1033B0004E02D813F3CF81E004C0CF5FC530D9F6F9
:1033C00080E0DF91CF911F910F91FF90EF90DF9000
:1033D000CF900895CF93C82F8CE20E94B119882313
:1033E00021F08C2FCF910C94B11980E0CF910895EA
:1033F000CF930E94511B811102C00E942C1BC5E675
:10340000C15049F00E9489028FE39CE90197F1F7CE
:1034100000C00000F5CF89E20E94EA1981111AC1AB
:103420008AE20E94EA19882341F00E944B1B0E9405
:103430002C1B0E942D210E94912085E00E94EA19F8
:1034400081110E948E190E945C1B8093C90187E044
:103450000E94EA198823A9F18BE10E94EA198823C6
:1034600051F08091C90181FB222720F991E0922738
:1034700090FB81F90EC08EE00E94EA19882361F06A
:103480008091C90182FB222720F991E0922790FBCD
:1034900082F98093C90115C080E10E94EA199091D8
:1034A000C901882341F093FB222720F981E082277C
:1034B00080FB93F904C0892F809580FB90F990934D
:1034C000C9018091C9010E94601B0E946E1B8093FC
:1034D000F00180EE0E94EA19882341F08091F0010A
:1034E000982F909590FB80F98093F00189E30E94DA
:1034F000EA19882359F08091F00181FB222720F9F5
:1035000091E0922790FB81F98093F00182EE0E9476
:10351000EA19882359F08091F00182FB222720F9D3
:1035200091E0922790FB82F98093F00186EE0E9451
:10353000EA19882359F08091F00183FB222720F9B2
:1035400091E0922790FB83F98093F00183EE0E9433
:10355000EA19882359F08091F00184FB222720F991
:1035600091E0922790FB84F98093F00185E30E941B
:10357000EA19882359F08091F00185FB222720F970
:1035800091E0922790FB85F98093F00181E30E94FE
:10359000EA19882359F08091F00186FB222720F94F
:1035A00091E0922790FB86F98093F00181E10E94DF
:1035B000EA19882359F08091F00187FB222720F92E
:1035C00091E0922790FB87F98093F0018091F001C0
:1035D0000E94721B8091F00187FB882780F98093FD
:1035E0000C0187E20E94EA19C82F8EE10E94EA19B5
:1035F0008111C2608FE10E94EA198111C46080E2EA
:103600000E94EA198111C86081E20E94EA198111C1
:10361000C06182E20E94EA198111C06283E20E94C5
:10362000EA198111C06484E20E94EA19882311F02A
:10363000C06802C0CC2329F08C2F0E94691B6C2F1C
:1036400003C00E94651B682F70E080E090E0CF917E
:103650000C94E114CF9108956DEE7EEF80E090E040
:103660000E94F82160E082E090E00E94EA2160E0A0
:1036700083E090E00E94EA2160E084E090E00E9414
:10368000EA2160E085E090E00E94EA2160E086E0C7
:1036900090E00C94EA216FEF7FEF80E090E00C94D3
:1036A000F82180E090E00E94E42121E08D3E9E4FD1
:1036B00009F020E0822F089582E090E00C94DC2154
:1036C000682F82E090E00C94EA2183E090E00C9473
:1036D000DC21682F83E090E00C94EA2184E090E004
:1036E0000C94DC21682F84E090E00C94EA2186E0C1
:1036F00090E00C94DC21682F86E090E00C94EA21A5
:103700000F931F93482F50E0FA013697E334F105E9
:1037100008F0ACC0E059FF4F0C94C2210E945C1B22
:103720000E946E1B0E94771B4BC00E94100B892BBE
:1037300059F00E94100B9093D0018093CF010E940A
:10374000DA1080E090E004C08091CF019091D00128
:103750000E940B0B35C08091C901817F8E7F8093C1
:10376000C90181E08093D10182C00E94DA100FEF7D
:1037700013ED20E3015010402040E1F700C00000AD
:103780000E948E191DC09091C901892F817090FFF0
:1037900012C0917F9E7F9093C90169C08091C90139
:1037A00081FB222720F991E0922790FB81F98093F9
:1037B000C901992329F08091C90181608093C901D1
:1037C00081E055C08091C90182FB222720F991E058
:1037D000922790FB82F9EBCF8091C90183FB2227CE
:1037E00020F991E0922790FB83F9E1CF0E94DA1053
:1037F00090910C0181E0892780930C01E1CF81E851
:1038000090E00E942C0B3FEF81EE94E0315080401D
:103810009040E1F700C0000080E090E00E942C0B97
:103820000FEF19E628E1015010402040E1F700C0F9
:103830000000C6CF61E070E080E090E012C08D51E2
:1038400001C0895341E050E060E070E08A019B01D3
:1038500004C0000F111F221F331F8A95D2F7C90120
:10386000B8010E94E1140E94DA10AACF80E01F91F3
:103870000F91089580E0089580E00895CF93C82FB8
:103880008091D101882319F0813049F031C0E09155
:103890000D01F0910E018081823261F507C0E09147
:1038A0000D01F0910E018081823261F48C2F0E9413
:1038B0003A1C811104C08C2F0E94801B17C081E02C
:1038C00090E014C08C2F0E943C1C81110EC0C431AA
:1038D00049F018F4CB3049F00FC0C93219F0C833A1
:1038E00021F00AC01092D10107C081E0817006C0AA
:1038F0001092D10180E002C080E0F8CFCF9108950E
:10390000E1E8F0E08081886080838081816080834D
:103910008FB7F89493E09093890090ED909388008E
:103920008FBF0C944120EFE6F0E0808182608083BD
:1039300081E08093E5010C945C20EFE6F0E080816B
:103940008D7F80831092E50180E00E944F2081E00E
:103950000E944F208091E5010C945C20E1EEF1E0A3
:10396000808381830895E82FF0E0EF51FE4F20819E
:10397000422F50E08FEF90E0861B91098417950746
:103980001CF48FEF80830895620F60830895CF93B6
:10399000C82F682F80E00E94B31C6C2F81E0CF916C
:1039A0000C94B31CE82FF0E0EF51FE4F8081861796
:1039B00010F410820895861B80830895CF93C82F3A
:1039C000682F80E00E94D21C6C2F81E0CF910C9474
:1039D000D21C8091E50108958091E001836080937D
:1039E000E00108951092E00108954091DF0121E087
:1039F00030E0662341F001C0220F8A95EAF7242BBC
:103A00002093DF010895B90102C0660F771F8A95E0
:103A1000E2F7CB01809584238093DF010895CF9353
:103A2000C82F682F80E00E94F51C6C2F81E0CF9199
:103A30000C94F51C8093DE010895ECEDF1E0808399
:103A4000818308958091DB0183608093DB01089579
:103A50001092DB0108958093D90108951F920F926F
:103A60000FB60F921124EF92FF920F931F932F9393
:103A70003F934F935F936F937F938F939F93AF93F6
:103A8000BF93CF93DF93EF93FF938091D5018F5F27
:103A90008093D50103EE11E0C0E0D0E0FC2E8091D0
:103AA000D50181110DC0F8018081882319F08C2F78
:103AB0000E944220FE01EF51FE4F8081F801808379
:103AC000F80181918F019091D501981303C08F2D3A
:103AD0000E944F20219719F0C1E0D0E0DFCF809104
:103AE000D4018F5F803418F48093D401ACC010925D
:103AF000D401E090E001E11005C09091DB0191114B
:103B00003BC0A1C08091D3018F5F8093D30190917E
:103B1000DE01981790F71092D3010CED11E0C0E090
:103B2000D0E0F12CC7010C2E02C0969587950A941F
:103B3000E2F780FF1AC0F8018081882319F08150D4
:103B4000808313C08091DF0190E00C2E02C0969517
:103B500087950A94E2F761E080FF04C08C2F0E94F1
:103B6000D21C03C08C2F0E94B31C0F5F1F4F2197E4
:103B700021F2C1E0D0E0D6CF8091D2018F5F809357
:103B8000D2012091D901281708F05DC01092D2010E
:103B90002091D6013091DA01A7EDB1E040E050E08C
:103BA000C1E0D0E0692F70E0042E02C076956795E1
:103BB0000A94E2F760FF3AC08C91E82FF0E0E959EF
:103BC000FC4F0491BA016F517E4FFB010083622FBD
:103BD00070E0042E02C0769567950A94E2F760FFC4
:103BE00019C0811115C0BE01042E01C0660F0A94D0
:103BF000EAF760952623E32FF0E0042E02C0F69545
:103C0000E7950A94E2F7E0FF11C0962336230EC031
:103C100081500BC08F3741F4BE01042E01C0660FE6
:103C20000A94EAF7262B02C08F5F8C9311964130DD
:103C3000510519F041E050E0B5CF9093DB0120939E
:103C4000D6013093DA01FF91EF91DF91CF91BF91CF
:103C5000AF919F918F917F916F915F914F913F9124
:103C60002F911F910F91FF90EF900F900FBE0F902B
:103C70001F9018950E94511B811102C00E942C1B9D
:103C80000E94771B8093FE0180FF02C0869501C0D1
:103C900080E00C94B7038091FE0180FF14C0982F40
:103CA0009695292F30E02830310544F49F5F990F15
:103CB0008170892B8093FE010E947B1B8091FE0105
:103CC00086950C94B70308958091FE0180FF14C07F
:103CD000982F9695292F30E02230310544F09158E5
:103CE000990F8170892B8093FE010E947B1B80912C
:103CF000FE0186950C94B70308958091FE01982FDC
:103D00009095917090FB80F98093FE01992339F092
:103D1000982F9E7F21F4817082608093FE018091B4
:103D2000FE010E947B1B8091FE0180FF02C08695F0
:103D300001C080E00C94B7039091FE01892F869515
:103D40008F5F8F779170893028F4880F892B80934B
:103D5000FE0102C09093FE018091FE018E7F91E0F2
:103D600009F490E08091FE0190FB80F98093FE01C0
:103D70000E947B1B8091FE0186950C94B703880FEF
:103D80009091FE019170892B8093FE018E7F91E0CE
:103D900009F490E08091FE0190FB80F98093FE0190
:103DA0000E947B1B8091FE0186950C94B703DF92E5
:103DB000EF92FF920F931F93CF93DF930091EB014C
:103DC0000827611101C0C9F1C0E0D0E0E62EF82E4D
:103DD00010E0DC2E0E94E91C882359F02091E701B5
:103DE00030E00C2E02C0369527950A94E2F720FDAC
:103DF0001DC0E11009C0C8010C2E02C09695879520
:103E00000A94E2F780FF12C02091E6012F2530E0EE
:103E10000C2E02C0369527950A94E2F78D2D20FFCF
:103E200003C00E943F0402C00E944804219719F079
:103E3000C1E0D0E0CECFF092EB01DF91CF911F91A6
:103E40000F91FF90EF90DF9008950F931F93CF9302
:103E5000DF93C0E0D0E001E010E08C2F0E94A120B1
:103E600094FF0BC08091E60198010C2E01C0220F37
:103E70000A94EAF7282B2093E60195FF0BC0809166
:103E8000E70198010C2E01C0220F0A94EAF7282BB3
:103E90002093E7019F70892F90E08230910589F08F
:103EA00083309105D1F08130910511F50C2E01C0C0
:103EB000880F0A94EAF79091E901892B8093E90130
:103EC00017C02091E801C8010C2E01C0880F0A9488
:103ED000EAF7822B8093E8010BC02091EA01C80128
:103EE0000C2E01C0880F0A94EAF7822B8093EA0116
:103EF000219719F0C1E0D0E0B0CF0E943A0461E010
:103F000080E0DF91CF911F910F910C94D71ECF933A
:103F1000DF939091EA01992369F1D82FC091EB01C9
:103F200090FF0FC080E00E94A1202D2F30E002C042
:103F3000359527958A95E2F720FD02C0CE7F01C016
:103F4000C1608091EA0181FF0FC081E00E94A12041
:103F50002D2F30E002C0359527958A95E2F720FD98
:103F600002C0CD7F01C0C26060E08C2FDF91CF9195
:103F70000C94D71EDF91CF910895CF92DF92EF92EC
:103F8000FF92CF932091E901222399F16B017C01EB
:103F9000C091EB0120FF11C080E00E94A120A70189
:103FA000960104C056954795379527958A95D2F77F
:103FB00020FD02C0CE7F01C0C1608091E90181FF78
:103FC0000FC081E00E94A12004C0F694E794D7942A
:103FD000C7948A95D2F7C0FC02C0CD7F01C0C260F1
:103FE00060E08C2FCF91FF90EF90DF90CF900C94FA
:103FF000D71ECF91FF90EF90DF90CF900895CF9292
:10400000DF92EF92FF92CF932091E801222399F162
:104010006B017C01C091EB0120FF11C080E00E9488
:10402000A120A701960104C056954795379527957D
:104030008A95D2F720FD02C0CE7F01C0C160809179
:10404000E80181FF0FC081E00E94A12004C0F69426
:10405000E794D794C7948A95D2F7C0FC02C0CD7F6D
:1040600001C0C26060E08C2FCF91FF90EF90DF9095
:10407000CF900C94D71ECF91FF90EF90DF90CF9010
:10408000089508952091E70130E0082E02C036958A
:1040900027950A94E2F720FD0C943F04089520919F
:1040A000E70130E0082E02C0369527950A94E2F722
:1040B00020FD0C9448040895811105C061E08091B1
:1040C000EB010C94D71E089588E090E00E94E42153
:1040D0009093ED018093EC01019661F480E00E94E1
:1040E00031049093ED018093EC01BC0188E090E0F5
:1040F0000E94F8218AE090E00E94E4219093EF0171
:104100008093EE01019661F481E00E943104909366
:10411000EF018093EE01BC018AE090E00C94F8215D
:10412000089580E00E943104BC0188E090E00E9484
:10413000F82181E00E943104BC018AE090E00C94F7
:10414000F821E82FF0E0EE0FFF1FE451FE4F8081D1
:1041500091810895CF92DF92EF92FF920F931F9378
:10416000CF9380E190E00E94E4218C01C12CD12CFE
:104170002DEEE22E2EEFF22E0E945C02C82F0E943E
:104180005E02C89FC00111249C0183E0220F331FEF
:104190008A95E1F7205C3F4FC216D30680F4C60132
:1041A00042960E94DC21282F30E0C0FE02C0322F50
:1041B0002227E20EF31E8FEFC81AD80ADDCF81E066
:1041C0000E151F0509F080E0CF911F910F91FF9010
:1041D000EF90DF90CF90089590E0880F991F42965E
:1041E0000C94E42190E0880F991F42960C94F821DA
:1041F000EF92FF920F931F93CF93DF9300D0CDB731
:10420000DEB7182F4A8369830E945C02082F0E9440
:104210005E02089FC0011124189F7001199FF00CC5
:1042200011240E945E0269819701689F200D311D53
:104230001124C9014A81840F911D8E5A9F4F0F90FE
:104240000F90DF91CF911F910F91FF90EF900C9401
:10425000DC218E5A9F4F0C94EA218F929F92AF924D
:10426000BF92CF92DF92EF92FF920F931F93CF9363
:10427000DF930E9459026C010E9456027C01C11416
:10428000D10409F10E943F024C01A12CB12C0DEE8A
:104290001EEFA814B90420F4F601C591D49102C010
:1042A000C0E0D0E0BE018A2D0E94F2200C0F1D1F3D
:1042B0008FEFA81AB80A82E0C80ED11C80E2A816B7
:1042C000B10439F702C00DEE1EEFE114F10471F1F3
:1042D0000E943C026C01A12CB12C0E945C02C82FF0
:1042E0000E945E02C89FC001112423E0880F991F1D
:1042F0002A95E1F7A816B906C8F4AC14BD0428F451
:10430000F701EA0DFB1DC49101C0C0E06C2FC5018F
:104310000E942921EC2FF0E0A0FE02C0FE2FEE2724
:104320000E0F1F1F8FEFA81AB80AD7CFB80180E170
:1043300090E0DF91CF911F910F91FF90EF90DF9070
:10434000CF90BF90AF909F908F900C94F8210E94D7
:10435000AA20811102C00C942D21089597FB072EED
:1043600016F4009407D077FD09D00E94C82107FCFD
:1043700005D03EF4909581959F4F08957095619575
:104380007F4F0895EE0FFF1F0590F491E02D0994E3
:10439000AA1BBB1B51E107C0AA1FBB1FA617B7076B
:1043A00010F0A61BB70B881F991F5A95A9F7809587
:1043B0009095BC01CD010895F999FECF92BD81BDC4
:1043C000F89A992780B50895A8E1B0E042E050E05E
:1043D0000C94FF21262FF999FECF1FBA92BD81BD03
:1043E00020BD0FB6F894FA9AF99A0FBE0196089577
:1043F0000E94EA21272F0C94EB21DC01CB01FC0168
:10440000F999FECF06C0F2BDE1BDF89A319600B42D
:0E4410000D9241505040B8F70895F894FFCF38
:10441E00055104BD045404890455040101B4013F3F
:0E442E0036392803F202B90265027E029702B7
:00000001FF
